{
  "contractName": "CrowdFounding",
  "abi": [
    {
      "inputs": [],
      "stateMutability": "nonpayable",
      "type": "constructor"
    },
    {
      "anonymous": false,
      "inputs": [
        {
          "indexed": false,
          "internalType": "enum CrowdFounding.State",
          "name": "newState",
          "type": "uint8"
        }
      ],
      "name": "ChangeState",
      "type": "event"
    },
    {
      "anonymous": false,
      "inputs": [
        {
          "indexed": false,
          "internalType": "address",
          "name": "colaborator",
          "type": "address"
        },
        {
          "indexed": false,
          "internalType": "uint256",
          "name": "amount",
          "type": "uint256"
        }
      ],
      "name": "NewFunds",
      "type": "event"
    },
    {
      "inputs": [
        {
          "internalType": "uint256",
          "name": "",
          "type": "uint256"
        }
      ],
      "name": "projects",
      "outputs": [
        {
          "internalType": "string",
          "name": "name",
          "type": "string"
        },
        {
          "internalType": "string",
          "name": "decription",
          "type": "string"
        },
        {
          "internalType": "address payable",
          "name": "author",
          "type": "address"
        },
        {
          "internalType": "enum CrowdFounding.State",
          "name": "state",
          "type": "uint8"
        },
        {
          "internalType": "uint256",
          "name": "funds",
          "type": "uint256"
        },
        {
          "internalType": "uint256",
          "name": "fundraisingGoal",
          "type": "uint256"
        }
      ],
      "stateMutability": "view",
      "type": "function",
      "constant": true
    },
    {
      "inputs": [],
      "name": "getAmountOfProjects",
      "outputs": [
        {
          "internalType": "uint256",
          "name": "",
          "type": "uint256"
        }
      ],
      "stateMutability": "view",
      "type": "function",
      "constant": true
    },
    {
      "inputs": [
        {
          "internalType": "uint256",
          "name": "idProject",
          "type": "uint256"
        }
      ],
      "name": "getProject",
      "outputs": [
        {
          "components": [
            {
              "internalType": "string",
              "name": "name",
              "type": "string"
            },
            {
              "internalType": "string",
              "name": "decription",
              "type": "string"
            },
            {
              "internalType": "address payable",
              "name": "author",
              "type": "address"
            },
            {
              "internalType": "enum CrowdFounding.State",
              "name": "state",
              "type": "uint8"
            },
            {
              "internalType": "uint256",
              "name": "funds",
              "type": "uint256"
            },
            {
              "internalType": "uint256",
              "name": "fundraisingGoal",
              "type": "uint256"
            }
          ],
          "internalType": "struct CrowdFounding.Project",
          "name": "",
          "type": "tuple"
        }
      ],
      "stateMutability": "view",
      "type": "function",
      "constant": true
    },
    {
      "inputs": [
        {
          "internalType": "string",
          "name": "name",
          "type": "string"
        },
        {
          "internalType": "string",
          "name": "description",
          "type": "string"
        },
        {
          "internalType": "uint256",
          "name": "fundraisingGoal",
          "type": "uint256"
        }
      ],
      "name": "createProject",
      "outputs": [],
      "stateMutability": "nonpayable",
      "type": "function"
    },
    {
      "inputs": [
        {
          "internalType": "uint256",
          "name": "id",
          "type": "uint256"
        }
      ],
      "name": "fundProject",
      "outputs": [],
      "stateMutability": "payable",
      "type": "function",
      "payable": true
    },
    {
      "inputs": [
        {
          "internalType": "uint256",
          "name": "id",
          "type": "uint256"
        },
        {
          "internalType": "enum CrowdFounding.State",
          "name": "newState",
          "type": "uint8"
        }
      ],
      "name": "changeProjectState",
      "outputs": [],
      "stateMutability": "nonpayable",
      "type": "function"
    }
  ],
  "bytecode": "0x608060405234801561001057600080fd5b50611612806100206000396000f3fe6080604052600436106100555760003560e01c8063107046bd1461005a57806317e925d71461009c57806323c55448146100c55780636c563abe146100ee578063d3d6a1171461010a578063f0f3f2c814610135575b600080fd5b34801561006657600080fd5b50610081600480360381019061007c9190610c49565b610172565b60405161009396959493929190610dd6565b60405180910390f35b3480156100a857600080fd5b506100c360048036038101906100be9190610e6a565b6102fb565b005b3480156100d157600080fd5b506100ec60048036038101906100e79190610fdf565b610503565b005b61010860048036038101906101039190610c49565b610656565b005b34801561011657600080fd5b5061011f6108ed565b60405161012c919061106a565b60405180910390f35b34801561014157600080fd5b5061015c60048036038101906101579190610c49565b6108f9565b604051610169919061118c565b60405180910390f35b6000818154811061018257600080fd5b90600052602060002090600502016000915090508060000180546101a5906111dd565b80601f01602080910402602001604051908101604052809291908181526020018280546101d1906111dd565b801561021e5780601f106101f35761010080835404028352916020019161021e565b820191906000526020600020905b81548152906001019060200180831161020157829003601f168201915b505050505090806001018054610233906111dd565b80601f016020809104026020016040519081016040528092919081815260200182805461025f906111dd565b80156102ac5780601f10610281576101008083540402835291602001916102ac565b820191906000526020600020905b81548152906001019060200180831161028f57829003601f168201915b5050505050908060020160009054906101000a900473ffffffffffffffffffffffffffffffffffffffff16908060020160149054906101000a900460ff16908060030154908060040154905086565b813373ffffffffffffffffffffffffffffffffffffffff16600082815481106103275761032661120f565b5b906000526020600020906005020160020160009054906101000a900473ffffffffffffffffffffffffffffffffffffffff1673ffffffffffffffffffffffffffffffffffffffff16146103af576040517f08c379a00000000000000000000000000000000000000000000000000000000081526004016103a6906112b0565b60405180910390fd5b8160018111156103c2576103c1610d50565b5b600084815481106103d6576103d561120f565b5b906000526020600020906005020160020160149054906101000a900460ff16600181111561040757610406610d50565b5b1415610448576040517f08c379a000000000000000000000000000000000000000000000000000000000815260040161043f9061131c565b60405180910390fd5b816000848154811061045d5761045c61120f565b5b906000526020600020906005020160020160146101000a81548160ff021916908360018111156104905761048f610d50565b5b02179055507f402ee26d4c255fcb07b0b7b5b93b77377832260977c25be44f3c8feffd2df70e600084815481106104ca576104c961120f565b5b906000526020600020906005020160020160149054906101000a900460ff166040516104f6919061133c565b60405180910390a1505050565b60006040518060c001604052808581526020018481526020013373ffffffffffffffffffffffffffffffffffffffff16815260200160018081111561054b5761054a610d50565b5b815260200160008152602001838152509050600081908060018154018082558091505060019003906000526020600020906005020160009091909190915060008201518160000190805190602001906105a5929190610afe565b5060208201518160010190805190602001906105c2929190610afe565b5060408201518160020160006101000a81548173ffffffffffffffffffffffffffffffffffffffff021916908373ffffffffffffffffffffffffffffffffffffffff16021790555060608201518160020160146101000a81548160ff0219169083600181111561063557610634610d50565b5b02179055506080820151816003015560a08201518160040155505050505050565b803373ffffffffffffffffffffffffffffffffffffffff16600082815481106106825761068161120f565b5b906000526020600020906005020160020160009054906101000a900473ffffffffffffffffffffffffffffffffffffffff1673ffffffffffffffffffffffffffffffffffffffff16141561070b576040517f08c379a0000000000000000000000000000000000000000000000000000000008152600401610702906113c9565b60405180910390fd5b6000600181111561071f5761071e610d50565b5b600083815481106107335761073261120f565b5b906000526020600020906005020160020160149054906101000a900460ff16600181111561076457610763610d50565b5b14156107a5576040517f08c379a000000000000000000000000000000000000000000000000000000000815260040161079c9061145b565b60405180910390fd5b600034116107e8576040517f08c379a00000000000000000000000000000000000000000000000000000000081526004016107df906114ed565b60405180910390fd5b600082815481106107fc576107fb61120f565b5b906000526020600020906005020160020160009054906101000a900473ffffffffffffffffffffffffffffffffffffffff1673ffffffffffffffffffffffffffffffffffffffff166108fc349081150290604051600060405180830381858888f19350505050158015610873573d6000803e3d6000fd5b5034600083815481106108895761088861120f565b5b906000526020600020906005020160030160008282546108a9919061153c565b925050819055507f2b6aa69d7af29fd38518d44025ae0801e505fb9e1065cb57945b4200ef7d719433346040516108e19291906115b3565b60405180910390a15050565b60008080549050905090565b610901610b84565b600082815481106109155761091461120f565b5b90600052602060002090600502016040518060c001604052908160008201805461093e906111dd565b80601f016020809104026020016040519081016040528092919081815260200182805461096a906111dd565b80156109b75780601f1061098c576101008083540402835291602001916109b7565b820191906000526020600020905b81548152906001019060200180831161099a57829003601f168201915b505050505081526020016001820180546109d0906111dd565b80601f01602080910402602001604051908101604052809291908181526020018280546109fc906111dd565b8015610a495780601f10610a1e57610100808354040283529160200191610a49565b820191906000526020600020905b815481529060010190602001808311610a2c57829003601f168201915b505050505081526020016002820160009054906101000a900473ffffffffffffffffffffffffffffffffffffffff1673ffffffffffffffffffffffffffffffffffffffff1673ffffffffffffffffffffffffffffffffffffffff1681526020016002820160149054906101000a900460ff166001811115610acd57610acc610d50565b5b6001811115610adf57610ade610d50565b5b8152602001600382015481526020016004820154815250509050919050565b828054610b0a906111dd565b90600052602060002090601f016020900481019282610b2c5760008555610b73565b82601f10610b4557805160ff1916838001178555610b73565b82800160010185558215610b73579182015b82811115610b72578251825591602001919060010190610b57565b5b509050610b809190610be2565b5090565b6040518060c001604052806060815260200160608152602001600073ffffffffffffffffffffffffffffffffffffffff16815260200160006001811115610bce57610bcd610d50565b5b815260200160008152602001600081525090565b5b80821115610bfb576000816000905550600101610be3565b5090565b6000604051905090565b600080fd5b600080fd5b6000819050919050565b610c2681610c13565b8114610c3157600080fd5b50565b600081359050610c4381610c1d565b92915050565b600060208284031215610c5f57610c5e610c09565b5b6000610c6d84828501610c34565b91505092915050565b600081519050919050565b600082825260208201905092915050565b60005b83811015610cb0578082015181840152602081019050610c95565b83811115610cbf576000848401525b50505050565b6000601f19601f8301169050919050565b6000610ce182610c76565b610ceb8185610c81565b9350610cfb818560208601610c92565b610d0481610cc5565b840191505092915050565b600073ffffffffffffffffffffffffffffffffffffffff82169050919050565b6000610d3a82610d0f565b9050919050565b610d4a81610d2f565b82525050565b7f4e487b7100000000000000000000000000000000000000000000000000000000600052602160045260246000fd5b60028110610d9057610d8f610d50565b5b50565b6000819050610da182610d7f565b919050565b6000610db182610d93565b9050919050565b610dc181610da6565b82525050565b610dd081610c13565b82525050565b600060c0820190508181036000830152610df08189610cd6565b90508181036020830152610e048188610cd6565b9050610e136040830187610d41565b610e206060830186610db8565b610e2d6080830185610dc7565b610e3a60a0830184610dc7565b979650505050505050565b60028110610e5257600080fd5b50565b600081359050610e6481610e45565b92915050565b60008060408385031215610e8157610e80610c09565b5b6000610e8f85828601610c34565b9250506020610ea085828601610e55565b9150509250929050565b600080fd5b600080fd5b7f4e487b7100000000000000000000000000000000000000000000000000000000600052604160045260246000fd5b610eec82610cc5565b810181811067ffffffffffffffff82111715610f0b57610f0a610eb4565b5b80604052505050565b6000610f1e610bff565b9050610f2a8282610ee3565b919050565b600067ffffffffffffffff821115610f4a57610f49610eb4565b5b610f5382610cc5565b9050602081019050919050565b82818337600083830152505050565b6000610f82610f7d84610f2f565b610f14565b905082815260208101848484011115610f9e57610f9d610eaf565b5b610fa9848285610f60565b509392505050565b600082601f830112610fc657610fc5610eaa565b5b8135610fd6848260208601610f6f565b91505092915050565b600080600060608486031215610ff857610ff7610c09565b5b600084013567ffffffffffffffff81111561101657611015610c0e565b5b61102286828701610fb1565b935050602084013567ffffffffffffffff81111561104357611042610c0e565b5b61104f86828701610fb1565b925050604061106086828701610c34565b9150509250925092565b600060208201905061107f6000830184610dc7565b92915050565b600082825260208201905092915050565b60006110a182610c76565b6110ab8185611085565b93506110bb818560208601610c92565b6110c481610cc5565b840191505092915050565b6110d881610d2f565b82525050565b6110e781610da6565b82525050565b6110f681610c13565b82525050565b600060c08301600083015184820360008601526111198282611096565b915050602083015184820360208601526111338282611096565b915050604083015161114860408601826110cf565b50606083015161115b60608601826110de565b50608083015161116e60808601826110ed565b5060a083015161118160a08601826110ed565b508091505092915050565b600060208201905081810360008301526111a681846110fc565b905092915050565b7f4e487b7100000000000000000000000000000000000000000000000000000000600052602260045260246000fd5b600060028204905060018216806111f557607f821691505b60208210811415611209576112086111ae565b5b50919050565b7f4e487b7100000000000000000000000000000000000000000000000000000000600052603260045260246000fd5b7f596f75206e65656420746f206265207468652070726f6a65637420617574686f60008201527f7200000000000000000000000000000000000000000000000000000000000000602082015250565b600061129a602183610c81565b91506112a58261123e565b604082019050919050565b600060208201905081810360008301526112c98161128d565b9050919050565b7f546865206e65775374617465206d75737420626520646966666572656e740000600082015250565b6000611306601e83610c81565b9150611311826112d0565b602082019050919050565b60006020820190508181036000830152611335816112f9565b9050919050565b60006020820190506113516000830184610db8565b92915050565b7f417320617574686f7220796f752063616e206e6f742066756e6420796f75722060008201527f6f776e2070726f6a656374000000000000000000000000000000000000000000602082015250565b60006113b3602b83610c81565b91506113be82611357565b604082019050919050565b600060208201905081810360008301526113e2816113a6565b9050919050565b7f596f752063616e27742066756e64206265636175736564207468652070726f7960008201527f65637420697320636c6f73656400000000000000000000000000000000000000602082015250565b6000611445602d83610c81565b9150611450826113e9565b604082019050919050565b6000602082019050818103600083015261147481611438565b9050919050565b7f466f756e642076616c7565206d7573742062652067726561746572207468616e60008201527f2030000000000000000000000000000000000000000000000000000000000000602082015250565b60006114d7602283610c81565b91506114e28261147b565b604082019050919050565b60006020820190508181036000830152611506816114ca565b9050919050565b7f4e487b7100000000000000000000000000000000000000000000000000000000600052601160045260246000fd5b600061154782610c13565b915061155283610c13565b9250827fffffffffffffffffffffffffffffffffffffffffffffffffffffffffffffffff038211156115875761158661150d565b5b828201905092915050565b600061159d82610d0f565b9050919050565b6115ad81611592565b82525050565b60006040820190506115c860008301856115a4565b6115d56020830184610dc7565b939250505056fea26469706673582212200c43d1cd888a573becd7785c81d855c40d5b860dbc434d7cbf446d408cae01f564736f6c634300080a0033",
  "immutableReferences": {},
  "source": "// SPDX-License-Identifier: GPL-3.0\n\npragma solidity >=0.7.0 <0.9.0;\n\ncontract CrowdFounding{\n\n    enum State { Closed, Opened }\n\n    struct Project {\n        string name;\n        string decription;\n        address payable author;\n        State state; // 1: Open, 0: Close\n        uint funds;\n        uint fundraisingGoal;\n    }\n\n    Project[] public projects;\n\n    constructor(){}\n\n    event ChangeState(\n        State newState\n    );\n\n    event NewFunds(\n        address colaborator,\n        uint amount\n    );\n\n    modifier isAuthor(uint idProject){\n        require(projects[idProject].author == msg.sender, \"You need to be the project author\");\n        _;\n    }\n\n    modifier isNotAuthor(uint idProject){\n        require(projects[idProject].author != msg.sender, \"As author you can not fund your own project\");\n        _;\n    }\n\n    function getAmountOfProjects()public view returns(uint) {\n        return projects.length;\n    }\n\n    function getProject(uint idProject)public view returns(Project memory){\n        return projects[idProject];\n    }\n\n    function createProject( string memory name, \n                            string memory description, \n                            uint fundraisingGoal)public{\n        Project memory project = Project(name, description, payable(msg.sender), State.Opened, 0, fundraisingGoal);\n        projects.push(project);\n    }\n\n    function fundProject(uint id)public payable isNotAuthor(id){\n        require(projects[id].state != State.Closed, \"You can't fund becaused the proyect is closed\");\n        require(msg.value > 0, \"Found value must be greater than 0\");\n        projects[id].author.transfer(msg.value);\n        projects[id].funds += msg.value;\n        emit NewFunds(msg.sender, msg.value);\n    }\n\n    function changeProjectState(uint id, State newState)public isAuthor(id){\n        require(projects[id].state != newState, \"The newState must be different\");\n        projects[id].state = newState;\n        emit ChangeState(projects[id].state);\n    }\n}",
  "sourcePath": "/home/damian/laboratorio/platzi/solidity/contracts/CrowdFounding.sol",
  "compiler": {
    "name": "solc",
    "version": "0.8.10+commit.fc410830.Emscripten.clang"
  },
  "schemaVersion": "3.4.3",
  "updatedAt": "2021-12-16T02:18:47.657Z",
  "networkType": "ethereum",
  "devdoc": {
    "kind": "dev",
    "methods": {},
    "version": 1
  },
  "userdoc": {
    "kind": "user",
    "methods": {},
    "version": 1
  }
}